:100000000C942A000C94F0000C943C000C943C00DE
:100010000C943C000C943C000C943C000C943C0070
:100020000C943C000C943C000C943C000C94B402E6
:100030000C943C000C943C000C943C000C943C0050
:100040000C943C000C943C000C943C000C943C0040
:100050000C943C0011241FBECFE5D8E0DEBFCDBF1D
:1000600020E0A0E6B0E001C01D92A536B207E1F79E
:100070000E9452010C9400030C94000060E084E4A0
:100080000E94EC0060E081E40E94430161E081E4B1
:100090000E94430162E081E40E94430160E082E447
:1000A0000E94430161E082E40E94430162E082E435
:1000B0000E9443010E9497020E948C020E948202C9
:1000C0000E947E028FE491E00E9490020895809148
:1000D0006100811118C060E081E40E94470162E084
:1000E00082E40E9447010E94A9028091610090E091
:1000F000019683709078992324F401978C6F9F6FF9
:10010000019680936100809161008130C1F40E946A
:10011000A90261E081E40E944B0161E082E40E9457
:100120004B018091610090E0019683709078992353
:1001300024F401978C6F9F6F0196809361008091EA
:100140006100823021F580916000882341F060E0F9
:1001500082E40E94470162E082E40E944B0160E079
:1001600081E40E944B0162E081E40E9447010E9409
:10017000A9028091610090E00196837090789923A4
:1001800024F401978C6F9F6F0196809361000E9409
:10019000A90260E082E40E944B0161E081E40E94D8
:1001A0004B0161E082E40E944B0180916100833049
:1001B00091F490E0019683709078992324F401974C
:1001C0008C6F9F6F01968093610062E081E40E94D2
:1001D0004B0110926000089540E00E94570108957D
:1001E0001F920F920FB60F9211242F933F934F93AC
:1001F0005F936F937F938F939F93AF93BF93EF938F
:10020000FF938091600081112DC080916100811168
:1002100004C084E18093640022C0813059F461E01D
:1002200081E40E944B0161E082E40E944B010E9444
:10023000AE0215C0823059F40E94AE0262E082E440
:100240000E944B0160E082E40E94470108C08330B5
:1002500031F484E18093640081E08093610081E067
:1002600080936000FF91EF91BF91AF919F918F912B
:100270007F916F915F914F913F912F910F900FBEA2
:100280000F901F90189541E00E945701089541E09A
:100290000E94CF01089540E00E94CF0108950E947E
:1002A000470208950E943E000E946700FDCF8234FD
:1002B00029F118F4813439F008958334D1F184346C
:1002C00009F452C00895413059F42AB381E090E016
:1002D00002C0880F991F6A95E2F7822B8ABB0895A6
:1002E00041115CC02AB381E090E002C0880F991FE1
:1002F0006A95E2F7809582238ABB0895413059F4CC
:1003000027B381E090E002C0880F991F6A95E2F759
:10031000822B87BB0895411141C027B381E090E053
:1003200002C0880F991F6A95E2F78095822387BBE8
:100330000895413059F424B381E090E002C0880F61
:10034000991F6A95E2F7822B84BB0895411126C05C
:1003500024B381E090E002C0880F991F6A95E2F70C
:100360008095822384BB0895413059F421B381E004
:1003700090E002C0880F991F6A95E2F7822B81BB3B
:10038000089541110BC021B381E090E002C0880FB5
:10039000991F6A95E2F78095822381BB0895823484
:1003A00029F118F4813439F008958334D1F184347B
:1003B00009F452C00895413059F42BB381E090E024
:1003C00002C0880F991F6A95E2F7822B8BBB0895B4
:1003D00041115CC02BB381E090E002C0880F991FEF
:1003E0006A95E2F7809582238BBB0895413059F4DA
:1003F00028B381E090E002C0880F991F6A95E2F768
:10040000822B88BB0895411141C028B381E090E060
:1004100002C0880F991F6A95E2F78095822388BBF6
:100420000895413059F425B381E090E002C0880F6F
:10043000991F6A95E2F7822B85BB0895411126C06A
:1004400025B381E090E002C0880F991F6A95E2F71A
:100450008095822385BB0895413059F422B381E011
:1004600090E002C0880F991F6A95E2F7822B82BB49
:10047000089541110BC022B381E090E002C0880FC3
:10048000991F6A95E2F78095822382BB0895823492
:10049000A1F018F4813431F008958334C9F0843424
:1004A00011F108952BB381E090E002C0880F991FED
:1004B0006A95E2F782278BBB089528B381E090E02C
:1004C00002C0880F991F6A95E2F7822788BB0895BA
:1004D00025B381E090E002C0880F991F6A95E2F78A
:1004E000822785BB089522B381E090E002C0880F87
:1004F000991F6A95E2F7822782BB08958FB78068BB
:100500008FBF089585B7816085BF85B7826085BF3D
:100510008BB780648BBF089589B7816089BF0895C8
:100520009093630080936200089582BF089583B71B
:1005300083BF8BE00E949502089583B7856083BFD7
:10054000809164008431E0F3089513BE109264003A
:1005500008950E949D020E94A50208958BE00E94CA
:1005600095021092640008951F920F920FB60F9299
:1005700011242F933F934F935F936F937F938F93A8
:100580009F93AF93BF93EF93FF938BE00E949502ED
:10059000809164008F5F809364008091610081305E
:1005A00011F08330E1F480916000811108C0E09186
:1005B0006200F091630061E081E4099510C0882336
:1005C00071F0E0916200F091630061E081E40995CF
:1005D000E0916200F091630061E082E40995FF918F
:1005E000EF91BF91AF919F918F917F916F915F91AB
:1005F0004F913F912F910F900FBE0F901F90189524
:04060000F894FFCF9C
:00000001FF
